:100000000C945D000C9485000C9485000C94850084
:100010000C9485000C9485000C9485000C9485004C
:100020000C9485000C9485000C9485000C9485003C
:100030000C9485000C9485000C9485000C9485002C
:100040000C94C2020C9485000C9432030C940C03A3
:100050000C9485000C9485000C9485000C9485000C
:100060000C9485000C9485000000000024002700FB
:100070002A0000000000250028002B0004040404CE
:100080000404040402020202020203030303030342
:10009000010204081020408001020408102001021F
:1000A00004081020000000080002010000030407FB
:1000B0000000000000000000A70411241FBECFEFC5
:1000C000D8E0DEBFCDBF21E0AAE1B1E001C01D92C2
:1000D000A73CB207E1F711E0A0E0B1E0E6ECFEE0FA
:1000E00002C005900D92AA31B107D9F710E0CDE515
:1000F000D0E004C02197FE010E946905CC35D107EC
:10010000C9F70E9464030C9461070C94000090E00E
:10011000FC01EC55FF4F2491FC01E057FF4F349157
:10012000FC01E458FF4FE491EE23C9F0222339F09B
:10013000233001F1A8F4213019F1223029F1F0E047
:10014000EE0FFF1FEE58FF4FA591B4918FB7F894B3
:10015000EC91611126C030953E233C938FBF0895EA
:100160002730A9F02830C9F0243049F78091800069
:100170008F7D03C0809180008F7780938000DFCFD8
:1001800084B58F7784BDDBCF84B58F7DFBCF809125
:10019000B0008F778093B000D2CF8091B0008F7D78
:1001A000F9CF3E2BDACFAF92BF92CF92DF92EF9290
:1001B000FF920F931F93CF93DF936C017B018B0111
:1001C000040F151FEB015E01AE18BF08C017D10761
:1001D00059F06991D601ED91FC910190F081E02DEB
:1001E000C6010995892B79F7C501DF91CF911F9140
:1001F0000F91FF90EF90DF90CF90BF90AF90089558
:10020000FC01538D448D252F30E0842F90E0821B1C
:10021000930B541710F0CF96089501970895FC01A1
:10022000918D828D981761F0A28DAE0FBF2FB11DF9
:100230005D968C91928D9F5F9F73928F90E0089551
:100240008FEF9FEF08952FB7F8948091220190913E
:100250002301A0912401B09125012FBF80932E018D
:1002600090932F01A0933001B093310186E291E089
:100270000E940F0197FF26C02FB7F89480912201AA
:1002800090912301A0912401B09125012FBF4091AD
:100290002E0150912F016091300170913101841B2A
:1002A000950BA60BB70B40912A0150912B01609141
:1002B0002C0170912D0184179507A607B707B0F29E
:1002C0008FEF9FEF0895FC01918D828D981731F08B
:1002D000828DE80FF11D858D90E008958FEF9FEFDF
:1002E0000895FC01918D228D892F90E0805C9F4FB5
:1002F000821B91098F739927089586E291E00E94ED
:10030000710121E0892B09F420E0822F089580E01B
:1003100090E0892B29F00E947D0181110C9400004E
:100320000895FC01A48DA80FB92FB11DA35ABF4F8A
:100330002C91848D90E001968F739927848FA689E4
:10034000B7892C93A089B1898C91837080648C9338
:10035000938D848D981306C00288F389E02D8081E7
:100360008F7D80830895EF92FF920F931F93CF9319
:10037000DF93EC0181E0888F9B8D8C8D98131AC0E0
:10038000E889F989808185FF15C09FB7F894EE89C7
:10039000FF896083E889F989808183708064808324
:1003A0009FBF81E090E0DF91CF911F910F91FF906F
:1003B000EF900895F62E0B8D10E00F5F1F4F0F7317
:1003C0001127E02E8C8D8E110CC00FB607FCFACFD2
:1003D000E889F989808185FFF5CFCE010E949101DE
:1003E000F1CFEB8DEC0FFD2FF11DE35AFF4FF082A3
:1003F0009FB7F8940B8FEA89FB8980818062CFCF09
:10040000CF93DF93EC01888D8823B9F0AA89BB894B
:10041000E889F9898C9185FD03C0808186FD0DC036
:100420000FB607FCF7CF8C9185FFF2CF808185FF57
:10043000EDCFCE010E949101E9CFDF91CF910895D8
:100440008F929F92AF92BF920F931F93CF93DF93A0
:10045000CDB7DEB7A1970FB6F894DEBF0FBECDBF04
:1004600019A2423008F44AE08E010F5D1F4F842E1E
:10047000912CB12CA12CA50194010E944705E62FD7
:10048000B901CA01EA3044F5E05DD801EE938D016F
:10049000232B242B252B79F790E080E0109769F02F
:1004A000FD0101900020E9F73197AF014A1B5B0B7A
:1004B000BD0186E291E00E94D300A1960FB6F894A8
:1004C000DEBF0FBECDBFDF91CF911F910F91BF90C7
:1004D000AF909F908F900895E95CD7CFCF92DF9235
:1004E000EF92FF92CF93DF9397FF1BC06B017C01CC
:1004F0006DE286E291E00E94B301EC016627772766
:10050000CB016C197D098E099F094AE00E942002E7
:100510008C0F9D1FDF91CF91FF90EF90DF90CF90D8
:1005200008954AE0DF91CF91FF90EF90DF90CF9058
:100530000C9420020F931F93CF93DF93EC018881DB
:100540009981009759F02A813B812617370730F0AF
:1005500081E0DF91CF911F910F9108958B016F5F23
:100560007F4F0E949406009759F0998388831B83DC
:100570000A832C813D81232B59F7FC011082E8CF9F
:1005800080E0E7CF1F920F920FB60F9211242F93A6
:100590003F938F939F93AF93BF938091220190914C
:1005A0002301A0912401B09125013091210123E084
:1005B000230F2D3758F50196A11DB11D2093210160
:1005C0008093220190932301A0932401B0932501ED
:1005D00080911D0190911E01A0911F01B0912001F9
:1005E0000196A11DB11D80931D0190931E01A09342
:1005F0001F01B0932001BF91AF919F918F913F91C7
:100600002F910F900FBE0F901F90189526E8230F83
:100610000296A11DB11DD2CF1F920F920FB60F925D
:1006200011242F933F934F935F936F937F938F93F7
:100630009F93AF93BF93EF93FF9386E291E00E9465
:100640009101FF91EF91BF91AF919F918F917F9118
:100650006F915F914F913F912F910F900FBE0F902F
:100660001F9018951F920F920FB60F9211242F937F
:100670008F939F93EF93FF93E0913601F0913701B1
:100680008081E0913C01F0913D0182FD1BC0908191
:1006900080913F018F5F8F7320914001821741F05D
:1006A000E0913F01F0E0EA5DFE4F958F80933F01BE
:1006B000FF91EF919F918F912F910F900FBE0F900F
:1006C0001F9018958081F4CFCF93DF93CDB7DEB71D
:1006D00028970FB6F894DEBF0FBECDBF789484B5CF
:1006E000826084BD84B5816084BD85B5826085BD2E
:1006F00085B5816085BD80916E00816080936E00BC
:1007000010928100809181008260809381008091AD
:10071000810081608093810080918000816080935E
:1007200080008091B10084608093B1008091B0001E
:1007300081608093B00080917A00846080937A0019
:1007400080917A00826080937A0080917A00816043
:1007500080937A0080917A00806880937A0010926A
:10076000C100E0913601F091370182E08083E09191
:100770003201F09133011082E0913401F0913501A2
:1007800080E1808310923E01E0913A01F0913B01BB
:1007900086E08083E0913801F091390180818061A9
:1007A0008083E0913801F0913901808188608083F5
:1007B000E0913801F0913901808180688083E09177
:1007C0003801F091390180818F7D808381E090E054
:1007D000A0E0B0E080932A0190932B01A0932C011C
:1007E000B0932D01E2E9F0E02491EEE7F0E084918E
:1007F000882399F090E0880F991FFC01E859FF4F7A
:10080000A591B491FC01EE58FF4F859194918FB75B
:10081000F894EC91E22BEC938FBF00E010E086E2BD
:1008200091E00E947101892B51F480911C0161E0DB
:10083000811101C060E082E00E948700F0CF1A823F
:1008400019821C821B821E821D8270E060E0CE0134
:1008500001960E949A0229813A8181112CC02115AA
:10086000310519F0C9010E940B061A8219821E82F5
:100870001D821C821B820E94230197FD24C08F834E
:100880001886ED80FE808FEFE81AF80AB701CE01D6
:1008900001960E949A02882371F329813A818D8101
:1008A0009E81BE01695F7F4F820F931F0E945A078E
:1008B000FE82ED82E0CF1E821D8268E171E0C901F7
:1008C0000E945A07D8CFE980FA8060E070E0CB013F
:1008D000E114F10419F0C7010E94D4046B01709374
:1008E0001B0160931A01E114F10419F0C7010E9481
:1008F0000B06B601DD0C880B990B0E946E0260910D
:100900001A0170911B0167317105F1F481E0809348
:100910001C016F5F7F4F072E000C880B990B0E9404
:100920006E0260911C0170E090E080E00E946E0217
:100930000115110509F473CF0E947D01882309F484
:100940006ECF0E9400006BCF10921C01E2CFE6E256
:10095000F1E01382128288EE93E0A0E0B0E084839D
:100960009583A683B7838AE091E09183808385ECA9
:1009700090E09587848784EC90E09787868780EC69
:1009800090E0918B808B81EC90E0938B828B82EC5A
:1009900090E0958B848B86EC90E0978B868B118E04
:1009A000128E138E148E08951F93FC0199278827A9
:1009B000BC01E89411911032E9F3193010F01E30A7
:1009C000C8F31B3251F01D3249F4689406C00E94EE
:1009D000FB04610F711D811D911D119110531A307F
:1009E000B0F33EF490958095709561957F4F8F4F51
:1009F0009F4F1F910895592F482F372F262F660F8D
:100A0000771F881F991F660F771F881F991F620F16
:100A1000731F841F951F660F771F881F991F0895E6
:100A20002F923F924F925F926F927F928F929F92FE
:100A3000AF92BF92CF92DF92EF92FF920F931F93EC
:100A4000CF93DF93CDB7DEB7CA1BDB0B0FB6F8949D
:100A5000DEBF0FBECDBF09942A88398848885F84DD
:100A60006E847D848C849B84AA84B984C884DF804E
:100A7000EE80FD800C811B81AA81B981CE0FD11D32
:100A80000FB6F894DEBF0FBECDBFED010895A1E211
:100A90001A2EAA1BBB1BFD010DC0AA1FBB1FEE1FF8
:100AA000FF1FA217B307E407F50720F0A21BB30B43
:100AB000E40BF50B661F771F881F991F1A9469F7BF
:100AC00060957095809590959B01AC01BD01CF011B
:100AD0000895EE0FFF1F0590F491E02D09940F93F8
:100AE0001F93CF93DF938230910510F482E090E062
:100AF000E091C501F091C60130E020E0B0E0A0E057
:100B0000309799F42115310509F44AC0281B390B97
:100B100024303105D8F58A819B816115710589F1F1
:100B2000FB0193838283FE0111C0408151810281C8
:100B3000138148175907E0F04817590799F410979F
:100B400061F012960C93129713961C933296CF0174
:100B5000DF91CF911F910F9108950093C5011093DC
:100B6000C601F4CF2115310551F04217530738F073
:100B7000A901DB019A01BD01DF01F801C1CFEF013D
:100B8000F9CF9093C6018093C501CDCFFE01E20F4E
:100B9000F31F819391932250310939832883D7CF52
:100BA0002091C3013091C401232B41F42091020113
:100BB000309103013093C4012093C30120910001BF
:100BC000309101012115310541F42DB73EB7409117
:100BD000040150910501241B350BE091C301F091F4
:100BE000C401E217F307A0F42E1B3F0B28173907A7
:100BF00078F0AC014E5F5F4F2417350748F04E0F79
:100C00005F1F5093C4014093C301819391939FCF81
:100C1000F0E0E0E09CCFCF93DF930097E9F0FC0198
:100C2000329713821282A091C501B091C601ED01E5
:100C300030E020E01097A1F420813181820F931FD2
:100C40002091C3013091C4012817390709F061C010
:100C5000F093C401E093C301DF91CF910895EA01BD
:100C6000CE17DF07E8F54A815B819E0141155105EA
:100C7000B1F7E901FB83EA8349915991C40FD51F6C
:100C8000EC17FD0761F4808191810296840F951F16
:100C9000E90199838883828193819B838A83F0E031
:100CA000E0E012968D919C9113970097B9F52D91E4
:100CB0003C911197CD010296820F931F2091C301A1
:100CC0003091C4012817390739F6309751F5109241
:100CD000C6011092C501B093C401A093C301BCCF5B
:100CE000D383C28340815181840F951FC817D907D0
:100CF00061F44E5F5F4F88819981480F591F51837E
:100D000040838A819B81938382832115310509F079
:100D1000B0CFF093C601E093C5019ECFFD01DC0189
:100D2000C0CF13821282D7CFB0E0A0E0EAE9F6E0AC
:100D30000C9412058C01009751F4CB010E946F05B1
:100D40008C01C801CDB7DEB7E0E10C942E05FC01A3
:100D5000E60FF71F9C0122503109E217F30708F450
:100D60009DC0D901CD91DC911197C617D70798F096
:100D7000C530D10530F3CE0104978617970708F3E5
:100D8000C61BD70B2297C193D1936D937C93CF0150
:100D90000E940B06D6CF5B01AC1ABD0A4C018C0E2B
:100DA0009D1EA091C501B091C601512C412CF12C82
:100DB000E12C109731F58091C3019091C401881501
:100DC000990509F05CC04616570608F058C0809196
:100DD000000190910101009741F48DB79EB74091B9
:100DE000040150910501841B950BE817F90708F0E1
:100DF00055C0F093C401E093C301F901718360838E
:100E0000A0CF8D919C91119712966C90129713968A
:100E10007C901397A815B90559F56C0142E0C40EF2
:100E2000D11CCA14DB0420F1AC014A195B09DA01B8
:100E30001296159780F06282738251834083D901A4
:100E40006D937C93E114F10471F0D7011396FC9338
:100E5000EE93129776CF22968C0F9D1FF901918306
:100E60008083F301EFCFF093C601E093C50169CF12
:100E70004816590608F42C017D01D3019ACFCB0105
:100E80000E946F057C01009749F0AE01B8010E94F5
:100E90005107C8010E940B06870153CF10E000E004
:100EA00050CFFB01DC0102C001900D924150504037
:100EB000D8F70895FB01DC0101900D920020E1F7C5
:060EC0000895F894FFCF35
:100EC6000000C701800000000000B301D30000014C
:0A0ED600000271010F01630100002A
:00000001FF
